{
    "contractName": "LockAsset",
    "abi": [
        {
            "inputs": [
                {
                    "internalType": "string",
                    "name": "id",
                    "type": "string"
                },
                {
                    "internalType": "uint256",
                    "name": "size",
                    "type": "uint256"
                }
            ],
            "name": "createAsset",
            "outputs": [],
            "stateMutability": "nonpayable",
            "type": "function"
        },
        {
            "inputs": [
                {
                    "internalType": "string",
                    "name": "id",
                    "type": "string"
                }
            ],
            "name": "deleteAsset",
            "outputs": [],
            "stateMutability": "nonpayable",
            "type": "function"
        },
        {
            "inputs": [
                {
                    "internalType": "string",
                    "name": "id",
                    "type": "string"
                }
            ],
            "name": "getAsset",
            "outputs": [
                {
                    "components": [
                        {
                            "internalType": "address",
                            "name": "creator",
                            "type": "address"
                        },
                        {
                            "internalType": "bool",
                            "name": "isLock",
                            "type": "bool"
                        },
                        {
                            "internalType": "uint256",
                            "name": "size",
                            "type": "uint256"
                        }
                    ],
                    "internalType": "struct Asset",
                    "name": "",
                    "type": "tuple"
                }
            ],
            "stateMutability": "view",
            "type": "function"
        },
        {
            "inputs": [
                {
                    "internalType": "string",
                    "name": "id",
                    "type": "string"
                }
            ],
            "name": "lockAsset",
            "outputs": [],
            "stateMutability": "nonpayable",
            "type": "function"
        },
        {
            "inputs": [
                {
                    "internalType": "string",
                    "name": "id",
                    "type": "string"
                }
            ],
            "name": "unLockAsset",
            "outputs": [],
            "stateMutability": "nonpayable",
            "type": "function"
        }
    ],
    "bytecode": "608060405234801561001057600080fd5b5061043a806100206000396000f3fe608060405234801561001057600080fd5b50600436106100575760003560e01c80635e82d0a61461005c578063cd5286d014610071578063db9cc410146100b5578063def60e0d146100c8578063e24aa37c146100db575b600080fd5b61006f61006a366004610366565b6100ee565b005b61008461007f366004610366565b610164565b6040805182516001600160a01b03168152602080840151151590820152918101519082015260600160405180910390f35b61006f6100c33660046103a8565b6101dc565b61006f6100d6366004610366565b610266565b61006f6100e9366004610366565b6102ad565b600080600084846040516101039291906103f4565b9081526020016040518091039020600101541190508061012257600080fd5b6001600084846040516101369291906103f4565b9081526040519081900360200190208054911515600160a01b0260ff60a01b19909216919091179055505050565b6040805160608101825260008082526020820181905291810191909152600083836040516101939291906103f4565b908152604080516020928190038301812060608201835280546001600160a01b0381168352600160a01b900460ff16151593820193909352600190920154908201529392505050565b600081116101e957600080fd5b80600084846040516101fc9291906103f4565b90815260200160405180910390206001018190555033600084846040516102249291906103f4565b90815260405190819003602001812080546001600160a01b03939093166001600160a01b031990931692909217909155600090819061013690869086906103f4565b6000806000848460405161027b9291906103f4565b9081526020016040518091039020600101541190508061029a57600080fd5b60008084846040516101369291906103f4565b600080600084846040516102c29291906103f4565b908152602001604051809103902060010154119050806102e157600080fd5b600083836040516102f39291906103f4565b90815260405190819003602001902080546001600160a81b03191681556000600190910155505050565b60008083601f84011261032f57600080fd5b50813567ffffffffffffffff81111561034757600080fd5b60208301915083602082850101111561035f57600080fd5b9250929050565b6000806020838503121561037957600080fd5b823567ffffffffffffffff81111561039057600080fd5b61039c8582860161031d565b90969095509350505050565b6000806000604084860312156103bd57600080fd5b833567ffffffffffffffff8111156103d457600080fd5b6103e08682870161031d565b909790965060209590950135949350505050565b818382376000910190815291905056fea26469706673582212202b72c80fea0db94301082489b13464539d767e762f08d7ca7577b2727dd7675264736f6c634300080b0033",
    "sourcePath": "/Users/jasonwang/odap-pr/packages/cactus-plugin-odap-hermes/src/test/solidity/lock-asset-contract/lock-asset.sol",
    "compiler": {
        "name": "solc",
        "version": "0.8.11+commit.d7f03943"
    },
    "functionHashes": {
        "createAsset(string,uint256)": "db9cc410",
        "deleteAsset(string)": "e24aa37c",
        "getAsset(string)": "cd5286d0",
        "lockAsset(string)": "5e82d0a6",
        "unLockAsset(string)": "def60e0d"
    },
    "gasEstimates": {
        "creation": {
            "codeDepositCost": "216400",
            "executionCost": "257",
            "totalCost": "216657"
        },
        "external": {
            "createAsset(string,uint256)": "infinite",
            "deleteAsset(string)": "infinite",
            "getAsset(string)": "infinite",
            "lockAsset(string)": "infinite",
            "unLockAsset(string)": "infinite"
        }
    }
}