{
    "contractName": "LockAsset",
    "abi": [
        {
            "inputs": [
                {
                    "internalType": "string",
                    "name": "id",
                    "type": "string"
                },
                {
                    "internalType": "uint256",
                    "name": "size",
                    "type": "uint256"
                }
            ],
            "name": "createAsset",
            "outputs": [
                {
                    "internalType": "bool",
                    "name": "",
                    "type": "bool"
                }
            ],
            "stateMutability": "nonpayable",
            "type": "function"
        },
        {
            "inputs": [
                {
                    "internalType": "string",
                    "name": "id",
                    "type": "string"
                }
            ],
            "name": "deleteAsset",
            "outputs": [
                {
                    "internalType": "bool",
                    "name": "",
                    "type": "bool"
                }
            ],
            "stateMutability": "nonpayable",
            "type": "function"
        },
        {
            "inputs": [
                {
                    "internalType": "string",
                    "name": "id",
                    "type": "string"
                }
            ],
            "name": "lockAsset",
            "outputs": [
                {
                    "internalType": "bool",
                    "name": "",
                    "type": "bool"
                }
            ],
            "stateMutability": "nonpayable",
            "type": "function"
        },
        {
            "inputs": [
                {
                    "internalType": "string",
                    "name": "id",
                    "type": "string"
                }
            ],
            "name": "unLockAsset",
            "outputs": [
                {
                    "internalType": "bool",
                    "name": "",
                    "type": "bool"
                }
            ],
            "stateMutability": "nonpayable",
            "type": "function"
        }
    ],
    "bytecode": "608060405234801561001057600080fd5b50610324806100206000396000f3fe608060405234801561001057600080fd5b506004361061004c5760003560e01c80635e82d0a614610051578063db9cc41014610078578063def60e0d1461008b578063e24aa37c1461009e575b600080fd5b61006461005f366004610250565b6100b1565b604051901515815260200160405180910390f35b610064610086366004610292565b610134565b610064610099366004610250565b610180565b6100646100ac366004610250565b6101c7565b60008060008085856040516100c79291906102de565b908152602001604051809103902060010154119050806100eb57600191505061012e565b6001600085856040516100ff9291906102de565b9081526040519081900360200190208054911515600160a01b0260ff60a01b1990921691909117905550600190505b92915050565b600080821161014257600080fd5b60008085856040516101559291906102de565b90815260405190819003602001902080546001600160a01b0319163317905550600190509392505050565b600080600084846040516101959291906102de565b9081526040519081900360200190208054911515600160a01b0260ff60a01b1990921691909117905550600192915050565b60008083836040516101da9291906102de565b90815260405190819003602001902080546001600160a81b03191681556000600191820155905092915050565b60008083601f84011261021957600080fd5b50813567ffffffffffffffff81111561023157600080fd5b60208301915083602082850101111561024957600080fd5b9250929050565b6000806020838503121561026357600080fd5b823567ffffffffffffffff81111561027a57600080fd5b61028685828601610207565b90969095509350505050565b6000806000604084860312156102a757600080fd5b833567ffffffffffffffff8111156102be57600080fd5b6102ca86828701610207565b909790965060209590950135949350505050565b818382376000910190815291905056fea2646970667358221220557d14d1f75abb8d53e74ae88dc2cc7bda0624f9647070fb0678dffb8edf69f764736f6c63430008060033",
    "sourcePath": "/Users/jasonwang/cactus-odap-merge/packages/cactus-plugin-ledger-connector-besu/src/test/solidity/hello-world-contract/lock-asset.sol",
    "compiler": {
        "name": "solc",
        "version": "0.8.6+commit.11564f7e"
    },
    "functionHashes": {
        "createAsset(string,uint256)": "db9cc410",
        "deleteAsset(string)": "e24aa37c",
        "lockAsset(string)": "5e82d0a6",
        "unLockAsset(string)": "def60e0d"
    },
    "gasEstimates": {
        "creation": {
            "codeDepositCost": "160800",
            "executionCost": "208",
            "totalCost": "161008"
        },
        "external": {
            "createAsset(string,uint256)": "infinite",
            "deleteAsset(string)": "infinite",
            "lockAsset(string)": "infinite",
            "unLockAsset(string)": "infinite"
        }
    }
}